{
  "contractName": "product",
  "abi": [
    {
      "inputs": [
        {
          "internalType": "uint256",
          "name": "",
          "type": "uint256"
        }
      ],
      "name": "productItems",
      "outputs": [
        {
          "internalType": "uint256",
          "name": "productId",
          "type": "uint256"
        },
        {
          "internalType": "bytes32",
          "name": "productSN",
          "type": "bytes32"
        },
        {
          "internalType": "bytes32",
          "name": "productName",
          "type": "bytes32"
        },
        {
          "internalType": "bytes32",
          "name": "productBrand",
          "type": "bytes32"
        },
        {
          "internalType": "uint256",
          "name": "productPrice",
          "type": "uint256"
        },
        {
          "internalType": "bytes32",
          "name": "productStatus",
          "type": "bytes32"
        }
      ],
      "stateMutability": "view",
      "type": "function",
      "constant": true
    },
    {
      "inputs": [
        {
          "internalType": "bytes32",
          "name": "",
          "type": "bytes32"
        }
      ],
      "name": "productMap",
      "outputs": [
        {
          "internalType": "uint256",
          "name": "",
          "type": "uint256"
        }
      ],
      "stateMutability": "view",
      "type": "function",
      "constant": true
    },
    {
      "inputs": [
        {
          "internalType": "bytes32",
          "name": "",
          "type": "bytes32"
        }
      ],
      "name": "productsForSale",
      "outputs": [
        {
          "internalType": "bytes32",
          "name": "",
          "type": "bytes32"
        }
      ],
      "stateMutability": "view",
      "type": "function",
      "constant": true
    },
    {
      "inputs": [
        {
          "internalType": "bytes32",
          "name": "",
          "type": "bytes32"
        }
      ],
      "name": "productsManufactured",
      "outputs": [
        {
          "internalType": "bytes32",
          "name": "",
          "type": "bytes32"
        }
      ],
      "stateMutability": "view",
      "type": "function",
      "constant": true
    },
    {
      "inputs": [
        {
          "internalType": "bytes32",
          "name": "",
          "type": "bytes32"
        }
      ],
      "name": "productsSold",
      "outputs": [
        {
          "internalType": "bytes32",
          "name": "",
          "type": "bytes32"
        }
      ],
      "stateMutability": "view",
      "type": "function",
      "constant": true
    },
    {
      "inputs": [
        {
          "internalType": "bytes32",
          "name": "",
          "type": "bytes32"
        },
        {
          "internalType": "uint256",
          "name": "",
          "type": "uint256"
        }
      ],
      "name": "productsWithConsumer",
      "outputs": [
        {
          "internalType": "bytes32",
          "name": "",
          "type": "bytes32"
        }
      ],
      "stateMutability": "view",
      "type": "function",
      "constant": true
    },
    {
      "inputs": [
        {
          "internalType": "bytes32",
          "name": "",
          "type": "bytes32"
        },
        {
          "internalType": "uint256",
          "name": "",
          "type": "uint256"
        }
      ],
      "name": "productsWithSeller",
      "outputs": [
        {
          "internalType": "bytes32",
          "name": "",
          "type": "bytes32"
        }
      ],
      "stateMutability": "view",
      "type": "function",
      "constant": true
    },
    {
      "inputs": [
        {
          "internalType": "uint256",
          "name": "",
          "type": "uint256"
        }
      ],
      "name": "sellers",
      "outputs": [
        {
          "internalType": "uint256",
          "name": "sellerId",
          "type": "uint256"
        },
        {
          "internalType": "bytes32",
          "name": "sellerName",
          "type": "bytes32"
        }
      ],
      "stateMutability": "view",
      "type": "function",
      "constant": true
    },
    {
      "inputs": [
        {
          "internalType": "bytes32",
          "name": "",
          "type": "bytes32"
        },
        {
          "internalType": "uint256",
          "name": "",
          "type": "uint256"
        }
      ],
      "name": "sellersWithManufacturer",
      "outputs": [
        {
          "internalType": "bytes32",
          "name": "",
          "type": "bytes32"
        }
      ],
      "stateMutability": "view",
      "type": "function",
      "constant": true
    },
    {
      "inputs": [
        {
          "internalType": "bytes32",
          "name": "_manufactuerID",
          "type": "bytes32"
        },
        {
          "internalType": "bytes32",
          "name": "_productName",
          "type": "bytes32"
        },
        {
          "internalType": "bytes32",
          "name": "_productSN",
          "type": "bytes32"
        },
        {
          "internalType": "bytes32",
          "name": "_productBrand",
          "type": "bytes32"
        },
        {
          "internalType": "uint256",
          "name": "_productPrice",
          "type": "uint256"
        }
      ],
      "name": "addProduct",
      "outputs": [],
      "stateMutability": "nonpayable",
      "type": "function"
    },
    {
      "inputs": [
        {
          "internalType": "bytes32",
          "name": "_productSN",
          "type": "bytes32"
        },
        {
          "internalType": "bytes32",
          "name": "_consumerCode",
          "type": "bytes32"
        }
      ],
      "name": "sellerSellProduct",
      "outputs": [],
      "stateMutability": "nonpayable",
      "type": "function"
    },
    {
      "inputs": [
        {
          "internalType": "bytes32",
          "name": "_productSN",
          "type": "bytes32"
        },
        {
          "internalType": "bytes32",
          "name": "_consumerCode",
          "type": "bytes32"
        }
      ],
      "name": "verifyProduct",
      "outputs": [
        {
          "internalType": "bool",
          "name": "",
          "type": "bool"
        }
      ],
      "stateMutability": "view",
      "type": "function",
      "constant": true
    },
    {
      "inputs": [
        {
          "internalType": "bytes32",
          "name": "_productSN",
          "type": "bytes32"
        }
      ],
      "name": "IsProductRegistered",
      "outputs": [
        {
          "internalType": "bool",
          "name": "",
          "type": "bool"
        }
      ],
      "stateMutability": "view",
      "type": "function",
      "constant": true
    }
  ],
  "bytecode": "0x608060405234801561001057600080fd5b50610b00806100206000396000f3fe608060405234801561001057600080fd5b50600436106100cf5760003560e01c8063a090f47c1161008c578063caaf275111610066578063caaf27511461025c578063cd4f6a2e14610291578063cee26ed5146102c1578063e262113f146102f2576100cf565b8063a090f47c146101e0578063b0c7ad9414610210578063c20805b41461022c576100cf565b8063100b6ba2146100d4578063344b5d51146101045780634b9930011461013457806368b3d018146101645780639316bff0146101945780639cd777dd146101b0575b600080fd5b6100ee60048036038101906100e991906107b3565b610322565b6040516100fb91906107f9565b60405180910390f35b61011e60048036038101906101199190610814565b61033a565b60405161012b919061086f565b60405180910390f35b61014e600480360381019061014991906108b6565b61036b565b60405161015b9190610905565b60405180910390f35b61017e600480360381019061017991906107b3565b61039c565b60405161018b919061086f565b60405180910390f35b6101ae60048036038101906101a99190610920565b610450565b005b6101ca60048036038101906101c591906108b6565b610544565b6040516101d79190610905565b60405180910390f35b6101fa60048036038101906101f591906107b3565b610575565b6040516102079190610905565b60405180910390f35b61022a60048036038101906102259190610814565b61058d565b005b610246600480360381019061024191906107b3565b6106b7565b6040516102539190610905565b60405180910390f35b6102766004803603810190610271919061099b565b6106cf565b604051610288969594939291906109c8565b60405180910390f35b6102ab60048036038101906102a691906107b3565b61070b565b6040516102b89190610905565b60405180910390f35b6102db60048036038101906102d6919061099b565b610723565b6040516102e9929190610a29565b60405180910390f35b61030c600480360381019061030791906108b6565b610747565b6040516103199190610905565b60405180910390f35b60046020528060005260406000206000915090505481565b600081600760008581526020019081526020016000205414156103605760019050610365565b600090505b92915050565b6008602052816000526040600020818154811061038757600080fd5b90600052602060002001600091509150505481565b60008060008060009050600060015411156103f657600091505b6001548210156103f55784600360008481526020019081526020016000206001015414156103e2578190505b81806103ed90610a81565b9250506103b6565b5b600360008281526020019081526020016000206005015492507f417661696c61626c650000000000000000000000000000000000000000000000831415610443576001935050505061044b565b600093505050505b919050565b6040518060c0016040528060015481526020018481526020018581526020018381526020018281526020017f417661696c61626c650000000000000000000000000000000000000000000000815250600360006001548152602001908152602001600020600082015181600001556020820151816001015560408201518160020155606082015181600301556080820151816004015560a0820151816005015590505060015460046000858152602001908152602001600020819055506001600081548092919061052090610a81565b91905055508460056000858152602001908152602001600020819055505050505050565b6009602052816000526040600020818154811061056057600080fd5b90600052602060002001600091509150505481565b60066020528060005260406000206000915090505481565b60008060008060015411156105e157600091505b6001548210156105e05784600360008481526020019081526020016000206001015414156105cd578190505b81806105d890610a81565b9250506105a1565b5b600360008281526020019081526020016000206005015492507f417661696c61626c6500000000000000000000000000000000000000000000008314156106b0577f4e410000000000000000000000000000000000000000000000000000000000006003600083815260200190815260200160002060050181905550600960008581526020019081526020016000208590806001815401808255809150506001900390600052602060002001600090919091909150558360076000878152602001908152602001600020819055505b5050505050565b60056020528060005260406000206000915090505481565b60036020528060005260406000206000915090508060000154908060010154908060020154908060030154908060040154908060050154905086565b60076020528060005260406000206000915090505481565b60026020528060005260406000206000915090508060000154908060010154905082565b600a602052816000526040600020818154811061076357600080fd5b90600052602060002001600091509150505481565b600080fd5b6000819050919050565b6107908161077d565b811461079b57600080fd5b50565b6000813590506107ad81610787565b92915050565b6000602082840312156107c9576107c8610778565b5b60006107d78482850161079e565b91505092915050565b6000819050919050565b6107f3816107e0565b82525050565b600060208201905061080e60008301846107ea565b92915050565b6000806040838503121561082b5761082a610778565b5b60006108398582860161079e565b925050602061084a8582860161079e565b9150509250929050565b60008115159050919050565b61086981610854565b82525050565b60006020820190506108846000830184610860565b92915050565b610893816107e0565b811461089e57600080fd5b50565b6000813590506108b08161088a565b92915050565b600080604083850312156108cd576108cc610778565b5b60006108db8582860161079e565b92505060206108ec858286016108a1565b9150509250929050565b6108ff8161077d565b82525050565b600060208201905061091a60008301846108f6565b92915050565b600080600080600060a0868803121561093c5761093b610778565b5b600061094a8882890161079e565b955050602061095b8882890161079e565b945050604061096c8882890161079e565b935050606061097d8882890161079e565b925050608061098e888289016108a1565b9150509295509295909350565b6000602082840312156109b1576109b0610778565b5b60006109bf848285016108a1565b91505092915050565b600060c0820190506109dd60008301896107ea565b6109ea60208301886108f6565b6109f760408301876108f6565b610a0460608301866108f6565b610a1160808301856107ea565b610a1e60a08301846108f6565b979650505050505050565b6000604082019050610a3e60008301856107ea565b610a4b60208301846108f6565b9392505050565b7f4e487b7100000000000000000000000000000000000000000000000000000000600052601160045260246000fd5b6000610a8c826107e0565b91507fffffffffffffffffffffffffffffffffffffffffffffffffffffffffffffffff821415610abf57610abe610a52565b5b60018201905091905056fea2646970667358221220caa84212c3ea08a05656384a55228c3a411e96ec5cb5857ca5226058dfc1eef764736f6c634300080c0033",
  "immutableReferences": {},
  "source": "pragma solidity ^0.8.12;\r\n\r\ncontract product {\r\n\r\n    uint256 sellerCount;\r\n    uint256 productCount;\r\n\r\n    struct seller{\r\n        uint256 sellerId;\r\n        bytes32 sellerName;\r\n    }\r\n    mapping(uint=>seller) public sellers;\r\n\r\n    struct productItem{\r\n        uint256 productId;\r\n        bytes32 productSN;\r\n        bytes32 productName;\r\n        bytes32 productBrand;\r\n        uint256 productPrice;\r\n        bytes32 productStatus;\r\n    }\r\n\r\n    mapping(uint256=>productItem) public productItems;\r\n    mapping(bytes32=>uint256) public productMap;\r\n    mapping(bytes32=>bytes32) public productsManufactured;\r\n    mapping(bytes32=>bytes32) public productsForSale;\r\n    mapping(bytes32=>bytes32) public productsSold;\r\n    mapping(bytes32=>bytes32[]) public productsWithSeller;\r\n    mapping(bytes32=>bytes32[]) public productsWithConsumer;\r\n    mapping(bytes32=>bytes32[]) public sellersWithManufacturer;\r\n\r\n\r\n   \r\n\r\n\r\n\r\n    //PRODUCT SECTION\r\n\r\n    function addProduct(bytes32 _manufactuerID, bytes32 _productName, bytes32 _productSN, bytes32 _productBrand,\r\n    uint256 _productPrice) public{\r\n        productItems[productCount] = productItem(productCount, _productSN, _productName, _productBrand,\r\n        _productPrice, \"Available\");\r\n        productMap[_productSN] = productCount;\r\n        productCount++;\r\n        productsManufactured[_productSN] = _manufactuerID;\r\n    }\r\n\r\n    function sellerSellProduct(bytes32 _productSN, bytes32 _consumerCode) public{   \r\n        bytes32 pStatus;\r\n        uint256 i;\r\n        uint256 j=0;\r\n\r\n        if(productCount>0) {\r\n            for(i=0;i<productCount;i++) {\r\n                if(productItems[i].productSN == _productSN) {\r\n                    j=i;\r\n                }\r\n            }\r\n        }\r\n\r\n        pStatus = productItems[j].productStatus;\r\n        if(pStatus == \"Available\") {\r\n            productItems[j].productStatus = \"NA\";\r\n            productsWithConsumer[_consumerCode].push(_productSN);\r\n            productsSold[_productSN] = _consumerCode;\r\n        }\r\n\r\n\r\n    }\r\n  \r\n\r\n    //Verify\r\n\r\n    function verifyProduct(bytes32 _productSN, bytes32 _consumerCode) public view returns(bool){\r\n        if(productsSold[_productSN] == _consumerCode){\r\n            return true;\r\n        }\r\n        else{\r\n            return false;\r\n        }\r\n    }\r\n\r\n    // Product registration\r\n     function IsProductRegistered(bytes32 _productSN) public view returns(bool){\r\n       bytes32 pStatus;\r\n        uint256 i;\r\n        uint256 j=0;\r\n\r\n        if(productCount>0) {\r\n            for(i=0;i<productCount;i++) {\r\n                if(productItems[i].productSN == _productSN) {\r\n                    j=i;\r\n                }\r\n            }\r\n        }\r\n\r\n        pStatus = productItems[j].productStatus;\r\n        if(pStatus == \"Available\") {\r\n            return true;\r\n        }\r\n        else\r\n        {\r\n            return false;\r\n        }\r\n    }\r\n}",
  "sourcePath": "C:\\Users\\vasav\\Downloads\\ProductIntegrityAssuranceSystem\\contracts\\product.sol",
  "compiler": {
    "name": "solc",
    "version": "0.8.12+commit.f00d7308.Emscripten.clang"
  },
  "schemaVersion": "3.4.16",
  "updatedAt": "2023-11-16T13:42:35.877Z",
  "networkType": "ethereum",
  "devdoc": {
    "kind": "dev",
    "methods": {},
    "version": 1
  },
  "userdoc": {
    "kind": "user",
    "methods": {},
    "version": 1
  }
}